{
  "_format": "hh-sol-artifact-1",
  "contractName": "ScopeTwoToken",
  "sourceName": "contracts/ScopeTwoToken.sol",
  "abi": [
    {
      "inputs": [],
      "name": "InvalidInitialization",
      "type": "error"
    },
    {
      "inputs": [],
      "name": "NotInitializing",
      "type": "error"
    },
    {
      "anonymous": false,
      "inputs": [
        {
          "indexed": true,
          "internalType": "address",
          "name": "owner",
          "type": "address"
        },
        {
          "indexed": true,
          "internalType": "address",
          "name": "spender",
          "type": "address"
        },
        {
          "indexed": false,
          "internalType": "uint256",
          "name": "value",
          "type": "uint256"
        }
      ],
      "name": "Approval",
      "type": "event"
    },
    {
      "anonymous": false,
      "inputs": [
        {
          "indexed": false,
          "internalType": "uint64",
          "name": "version",
          "type": "uint64"
        }
      ],
      "name": "Initialized",
      "type": "event"
    },
    {
      "anonymous": false,
      "inputs": [
        {
          "indexed": true,
          "internalType": "address",
          "name": "from",
          "type": "address"
        },
        {
          "indexed": true,
          "internalType": "address",
          "name": "to",
          "type": "address"
        },
        {
          "indexed": false,
          "internalType": "uint256",
          "name": "value",
          "type": "uint256"
        }
      ],
      "name": "Transfer",
      "type": "event"
    },
    {
      "anonymous": false,
      "inputs": [
        {
          "indexed": false,
          "internalType": "uint256",
          "name": "votingNumber",
          "type": "uint256"
        }
      ],
      "name": "VotingEnded",
      "type": "event"
    },
    {
      "anonymous": false,
      "inputs": [
        {
          "indexed": false,
          "internalType": "uint256",
          "name": "votingNumber",
          "type": "uint256"
        }
      ],
      "name": "VotingStarted",
      "type": "event"
    },
    {
      "inputs": [],
      "name": "_owner",
      "outputs": [
        {
          "internalType": "address",
          "name": "",
          "type": "address"
        }
      ],
      "stateMutability": "view",
      "type": "function"
    },
    {
      "inputs": [
        {
          "internalType": "address",
          "name": "owner",
          "type": "address"
        },
        {
          "internalType": "address",
          "name": "spender",
          "type": "address"
        }
      ],
      "name": "allowance",
      "outputs": [
        {
          "internalType": "uint256",
          "name": "",
          "type": "uint256"
        }
      ],
      "stateMutability": "view",
      "type": "function"
    },
    {
      "inputs": [
        {
          "internalType": "address",
          "name": "spender",
          "type": "address"
        },
        {
          "internalType": "uint256",
          "name": "amount",
          "type": "uint256"
        }
      ],
      "name": "approve",
      "outputs": [
        {
          "internalType": "bool",
          "name": "",
          "type": "bool"
        }
      ],
      "stateMutability": "nonpayable",
      "type": "function"
    },
    {
      "inputs": [
        {
          "internalType": "address",
          "name": "account",
          "type": "address"
        }
      ],
      "name": "balanceOf",
      "outputs": [
        {
          "internalType": "uint256",
          "name": "",
          "type": "uint256"
        }
      ],
      "stateMutability": "view",
      "type": "function"
    },
    {
      "inputs": [],
      "name": "burnFeeTokens",
      "outputs": [],
      "stateMutability": "nonpayable",
      "type": "function"
    },
    {
      "inputs": [],
      "name": "buy",
      "outputs": [],
      "stateMutability": "payable",
      "type": "function"
    },
    {
      "inputs": [],
      "name": "endVoting",
      "outputs": [],
      "stateMutability": "nonpayable",
      "type": "function"
    },
    {
      "inputs": [
        {
          "internalType": "uint256",
          "name": "_timeToVote",
          "type": "uint256"
        },
        {
          "internalType": "uint256",
          "name": "changeVotingThreshold",
          "type": "uint256"
        },
        {
          "internalType": "uint256",
          "name": "priceVotingThreshold",
          "type": "uint256"
        }
      ],
      "name": "initialize",
      "outputs": [],
      "stateMutability": "nonpayable",
      "type": "function"
    },
    {
      "inputs": [],
      "name": "leadingPrice",
      "outputs": [
        {
          "internalType": "uint256",
          "name": "",
          "type": "uint256"
        }
      ],
      "stateMutability": "view",
      "type": "function"
    },
    {
      "inputs": [
        {
          "internalType": "uint256",
          "name": "tokensAmount",
          "type": "uint256"
        }
      ],
      "name": "sell",
      "outputs": [],
      "stateMutability": "nonpayable",
      "type": "function"
    },
    {
      "inputs": [
        {
          "internalType": "uint8",
          "name": "newFee",
          "type": "uint8"
        }
      ],
      "name": "setFeePercent",
      "outputs": [],
      "stateMutability": "nonpayable",
      "type": "function"
    },
    {
      "inputs": [
        {
          "internalType": "uint256",
          "name": "price",
          "type": "uint256"
        }
      ],
      "name": "setInitialPrice",
      "outputs": [],
      "stateMutability": "nonpayable",
      "type": "function"
    },
    {
      "inputs": [],
      "name": "startVoting",
      "outputs": [],
      "stateMutability": "nonpayable",
      "type": "function"
    },
    {
      "inputs": [],
      "name": "timeToVote",
      "outputs": [
        {
          "internalType": "uint256",
          "name": "",
          "type": "uint256"
        }
      ],
      "stateMutability": "view",
      "type": "function"
    },
    {
      "inputs": [],
      "name": "totalSupply",
      "outputs": [
        {
          "internalType": "uint256",
          "name": "",
          "type": "uint256"
        }
      ],
      "stateMutability": "view",
      "type": "function"
    },
    {
      "inputs": [
        {
          "internalType": "address",
          "name": "to",
          "type": "address"
        },
        {
          "internalType": "uint256",
          "name": "amount",
          "type": "uint256"
        }
      ],
      "name": "transfer",
      "outputs": [
        {
          "internalType": "bool",
          "name": "",
          "type": "bool"
        }
      ],
      "stateMutability": "nonpayable",
      "type": "function"
    },
    {
      "inputs": [
        {
          "internalType": "address",
          "name": "from",
          "type": "address"
        },
        {
          "internalType": "address",
          "name": "to",
          "type": "address"
        },
        {
          "internalType": "uint256",
          "name": "amount",
          "type": "uint256"
        }
      ],
      "name": "transferFrom",
      "outputs": [
        {
          "internalType": "bool",
          "name": "",
          "type": "bool"
        }
      ],
      "stateMutability": "nonpayable",
      "type": "function"
    },
    {
      "inputs": [
        {
          "internalType": "uint256",
          "name": "price",
          "type": "uint256"
        }
      ],
      "name": "vote",
      "outputs": [],
      "stateMutability": "nonpayable",
      "type": "function"
    },
    {
      "inputs": [
        {
          "internalType": "bool",
          "name": "forChange",
          "type": "bool"
        }
      ],
      "name": "vote",
      "outputs": [],
      "stateMutability": "nonpayable",
      "type": "function"
    },
    {
      "inputs": [],
      "name": "votedAgainst",
      "outputs": [
        {
          "internalType": "uint256",
          "name": "",
          "type": "uint256"
        }
      ],
      "stateMutability": "view",
      "type": "function"
    },
    {
      "inputs": [],
      "name": "votedFor",
      "outputs": [
        {
          "internalType": "uint256",
          "name": "",
          "type": "uint256"
        }
      ],
      "stateMutability": "view",
      "type": "function"
    },
    {
      "inputs": [],
      "name": "votingActive",
      "outputs": [
        {
          "internalType": "bool",
          "name": "",
          "type": "bool"
        }
      ],
      "stateMutability": "view",
      "type": "function"
    },
    {
      "inputs": [],
      "name": "votingNumber",
      "outputs": [
        {
          "internalType": "uint256",
          "name": "",
          "type": "uint256"
        }
      ],
      "stateMutability": "view",
      "type": "function"
    },
    {
      "inputs": [],
      "name": "votingStartTime",
      "outputs": [
        {
          "internalType": "uint256",
          "name": "",
          "type": "uint256"
        }
      ],
      "stateMutability": "view",
      "type": "function"
    }
  ],
  "bytecode": "0x60806040526103e86014556101f4601555348015601b57600080fd5b506136d98061002b6000396000f3fe60806040526004361061014b5760003560e01c8063941fb21f116100b6578063a9059cbb1161006f578063a9059cbb1461043b578063b2bdfa7b14610478578063c3403ddf146104a3578063dd62ed3e146104ba578063e4849b32146104f7578063f4838176146105205761014b565b8063941fb21f14610370578063945837e21461039b5780639f4ba0ee146103c6578063a1cdf462146103ef578063a56a149b14610406578063a6f2ae3a146104315761014b565b8063403868b411610108578063403868b414610260578063408e27271461028b5780634b9f5c98146102b657806370a08231146102df57806380d859111461031c57806384cf23cd146103455761014b565b80630121b93f14610150578063095ea7b31461017957806318160ddd146101b65780631ec6b60a146101e15780632019a608146101f857806323b872dd14610223575b600080fd5b34801561015c57600080fd5b5061017760048036038101906101729190612415565b610549565b005b34801561018557600080fd5b506101a0600480360381019061019b91906124a0565b610869565b6040516101ad91906124fb565b60405180910390f35b3480156101c257600080fd5b506101cb61095b565b6040516101d89190612525565b60405180910390f35b3480156101ed57600080fd5b506101f6610964565b005b34801561020457600080fd5b5061020d610bf2565b60405161021a9190612525565b60405180910390f35b34801561022f57600080fd5b5061024a60048036038101906102459190612540565b610bf8565b60405161025791906124fb565b60405180910390f35b34801561026c57600080fd5b50610275610cfc565b6040516102829190612525565b60405180910390f35b34801561029757600080fd5b506102a0610d02565b6040516102ad91906124fb565b60405180910390f35b3480156102c257600080fd5b506102dd60048036038101906102d891906125bf565b610d15565b005b3480156102eb57600080fd5b50610306600480360381019061030191906125ec565b610f89565b6040516103139190612525565b60405180910390f35b34801561032857600080fd5b50610343600480360381019061033e9190612619565b610fd2565b005b34801561035157600080fd5b5061035a6111b0565b6040516103679190612525565b60405180910390f35b34801561037c57600080fd5b506103856111b6565b6040516103929190612525565b60405180910390f35b3480156103a757600080fd5b506103b06111bc565b6040516103bd9190612525565b60405180910390f35b3480156103d257600080fd5b506103ed60048036038101906103e89190612415565b6111c2565b005b3480156103fb57600080fd5b506104046112e4565b005b34801561041257600080fd5b5061041b61138a565b6040516104289190612525565b60405180910390f35b610439611390565b005b34801561044757600080fd5b50610462600480360381019061045d91906124a0565b611595565b60405161046f91906124fb565b60405180910390f35b34801561048457600080fd5b5061048d611697565b60405161049a919061267b565b60405180910390f35b3480156104af57600080fd5b506104b86116bd565b005b3480156104c657600080fd5b506104e160048036038101906104dc9190612696565b61188e565b6040516104ee9190612525565b60405180910390f35b34801561050357600080fd5b5061051e60048036038101906105199190612415565b611915565b005b34801561052c57600080fd5b506105476004803603810190610542919061270f565b611b97565b005b8060008111801561055c57508060045414155b61059b576040517f08c379a0000000000000000000000000000000000000000000000000000000008152600401610592906127bf565b60405180910390fd5b60001515601260003373ffffffffffffffffffffffffffffffffffffffff1673ffffffffffffffffffffffffffffffffffffffff16815260200190815260200160002060009054906101000a900460ff1615151461062e576040517f08c379a000000000000000000000000000000000000000000000000000000000815260040161062590612851565b60405180910390fd5b6000805411610672576040517f08c379a0000000000000000000000000000000000000000000000000000000008152600401610669906128e3565b60405180910390fd5b600054601554600160003373ffffffffffffffffffffffffffffffffffffffff1673ffffffffffffffffffffffffffffffffffffffff168152602001908152602001600020546106c29190612932565b1015610703576040517f08c379a00000000000000000000000000000000000000000000000000000000081526004016106fa906129e6565b60405180910390fd5b6000600a60006016548152602001908152602001600020549050600160003373ffffffffffffffffffffffffffffffffffffffff1673ffffffffffffffffffffffffffffffffffffffff16815260200190815260200160002054600a6000858152602001908152602001600020600082825461077f9190612a06565b925050819055506001601260003373ffffffffffffffffffffffffffffffffffffffff1673ffffffffffffffffffffffffffffffffffffffff16815260200190815260200160002060006101000a81548160ff0219169083151502179055506013339080600181540180825580915050600190039060005260206000200160009091909190916101000a81548173ffffffffffffffffffffffffffffffffffffffff021916908373ffffffffffffffffffffffffffffffffffffffff16021790555080600a600085815260200190815260200160002054111561086457826016819055505b505050565b600081600260003373ffffffffffffffffffffffffffffffffffffffff1673ffffffffffffffffffffffffffffffffffffffff16815260200190815260200160002060008573ffffffffffffffffffffffffffffffffffffffff1673ffffffffffffffffffffffffffffffffffffffff168152602001908152602001600020819055508273ffffffffffffffffffffffffffffffffffffffff163373ffffffffffffffffffffffffffffffffffffffff167f8c5be1e5ebec7d5bd14f71427d1e84f3dd0314c0f7b2291e5b200ac8c7c3b925846040516109499190612525565b60405180910390a36001905092915050565b60008054905090565b600360009054906101000a900473ffffffffffffffffffffffffffffffffffffffff1673ffffffffffffffffffffffffffffffffffffffff163373ffffffffffffffffffffffffffffffffffffffff16146109f4576040517f08c379a00000000000000000000000000000000000000000000000000000000081526004016109eb90612a86565b60405180910390fd5b60001515600f60009054906101000a900460ff16151514610a4a576040517f08c379a0000000000000000000000000000000000000000000000000000000008152600401610a4190612b18565b60405180910390fd5b600954600854118015610a6c57506001600954600854610a6a9190612a06565b115b610aab576040517f08c379a0000000000000000000000000000000000000000000000000000000008152600401610aa290612bd0565b60405180910390fd5b60005b601180549050811015610b5e5760006010600060118481548110610ad557610ad4612bf0565b5b9060005260206000200160009054906101000a900473ffffffffffffffffffffffffffffffffffffffff1673ffffffffffffffffffffffffffffffffffffffff1673ffffffffffffffffffffffffffffffffffffffff16815260200190815260200160002060006101000a81548160ff0219169083151502179055508080600101915050610aae565b5060116000610b6d919061239c565b600060088190555060006009819055506001600f60006101000a81548160ff02191690831515021790555042600d81905550600e6000815480929190610bb290612c1f565b91905055507fcf33babc496bb6dc2942b39cb7b75766bbbadf7da50d176ff8c513e991140239600e54604051610be89190612525565b60405180910390a1565b600d5481565b6000801515601060008673ffffffffffffffffffffffffffffffffffffffff1673ffffffffffffffffffffffffffffffffffffffff16815260200190815260200160002060009054906101000a900460ff161515148015610ca9575060001515601260008673ffffffffffffffffffffffffffffffffffffffff1673ffffffffffffffffffffffffffffffffffffffff16815260200190815260200160002060009054906101000a900460ff161515145b610ce8576040517f08c379a0000000000000000000000000000000000000000000000000000000008152600401610cdf90612cd9565b60405180910390fd5b610cf3848484611c9a565b90509392505050565b60165481565b600f60009054906101000a900460ff1681565b60001515600f60009054906101000a900460ff16151514610d6b576040517f08c379a0000000000000000000000000000000000000000000000000000000008152600401610d6290612d6b565b60405180910390fd5b60001515601060003373ffffffffffffffffffffffffffffffffffffffff1673ffffffffffffffffffffffffffffffffffffffff16815260200190815260200160002060009054906101000a900460ff16151514610dfe576040517f08c379a0000000000000000000000000000000000000000000000000000000008152600401610df590612dfd565b60405180910390fd5b600054601454600160003373ffffffffffffffffffffffffffffffffffffffff1673ffffffffffffffffffffffffffffffffffffffff16815260200190815260200160002054610e4e9190612932565b1015610e8f576040517f08c379a0000000000000000000000000000000000000000000000000000000008152600401610e8690612e8f565b60405180910390fd5b8015610eb25760086000815480929190610ea890612c1f565b9190505550610ecb565b60096000815480929190610ec590612c1f565b91905055505b6001601060003373ffffffffffffffffffffffffffffffffffffffff1673ffffffffffffffffffffffffffffffffffffffff16815260200190815260200160002060006101000a81548160ff0219169083151502179055506011339080600181540180825580915050600190039060005260206000200160009091909190916101000a81548173ffffffffffffffffffffffffffffffffffffffff021916908373ffffffffffffffffffffffffffffffffffffffff16021790555050565b6000600160008373ffffffffffffffffffffffffffffffffffffffff1673ffffffffffffffffffffffffffffffffffffffff168152602001908152602001600020549050919050565b6000610fdc611f8c565b905060008160000160089054906101000a900460ff1615905060008260000160009054906101000a900467ffffffffffffffff1690506000808267ffffffffffffffff1614801561102a5750825b9050600060018367ffffffffffffffff1614801561105f575060003073ffffffffffffffffffffffffffffffffffffffff163b145b90508115801561106d575080155b156110a4576040517ff92ee8a900000000000000000000000000000000000000000000000000000000815260040160405180910390fd5b60018560000160006101000a81548167ffffffffffffffff021916908367ffffffffffffffff16021790555083156110f45760018560000160086101000a81548160ff0219169083151502179055505b87600c81905550866014819055508560158190555033600360006101000a81548173ffffffffffffffffffffffffffffffffffffffff021916908373ffffffffffffffffffffffffffffffffffffffff16021790555083156111a65760008560000160086101000a81548160ff0219169083151502179055507fc7f505b2f371ae2175ee4913f4499e1f2633a7b5936321eed1cdaeb6115181d2600160405161119d9190612f08565b60405180910390a15b5050505050505050565b60095481565b60085481565b600c5481565b600360009054906101000a900473ffffffffffffffffffffffffffffffffffffffff1673ffffffffffffffffffffffffffffffffffffffff163373ffffffffffffffffffffffffffffffffffffffff1614611252576040517f08c379a000000000000000000000000000000000000000000000000000000000815260040161124990612a86565b60405180910390fd5b600060045414611297576040517f08c379a000000000000000000000000000000000000000000000000000000000815260040161128e90612f6f565b60405180910390fd5b600081116112da576040517f08c379a00000000000000000000000000000000000000000000000000000000081526004016112d190612fdb565b60405180910390fd5b8060048190555050565b600360009054906101000a900473ffffffffffffffffffffffffffffffffffffffff1673ffffffffffffffffffffffffffffffffffffffff163373ffffffffffffffffffffffffffffffffffffffff1614611374576040517f08c379a000000000000000000000000000000000000000000000000000000000815260040161136b90612a86565b60405180910390fd5b61138030600654611fa0565b6000600681905550565b600e5481565b60001515601060003373ffffffffffffffffffffffffffffffffffffffff1673ffffffffffffffffffffffffffffffffffffffff16815260200190815260200160002060009054906101000a900460ff161515148015611440575060001515601260003373ffffffffffffffffffffffffffffffffffffffff1673ffffffffffffffffffffffffffffffffffffffff16815260200190815260200160002060009054906101000a900460ff161515145b61147f576040517f08c379a00000000000000000000000000000000000000000000000000000000081526004016114769061306d565b60405180910390fd5b6000600454116114c4576040517f08c379a00000000000000000000000000000000000000000000000000000000081526004016114bb906130ff565b60405180910390fd5b60003411611507576040517f08c379a00000000000000000000000000000000000000000000000000000000081526004016114fe9061316b565b60405180910390fd5b60006004546064346115199190612932565b61152391906131ba565b905060006064600560009054906101000a900460ff1660ff16836115479190612932565b61155191906131ba565b90506000818361156191906131eb565b905061156d33826120fa565b61157730836120fa565b81600660008282546115899190612a06565b92505081905550505050565b6000801515601060003373ffffffffffffffffffffffffffffffffffffffff1673ffffffffffffffffffffffffffffffffffffffff16815260200190815260200160002060009054906101000a900460ff161515148015611646575060001515601260003373ffffffffffffffffffffffffffffffffffffffff1673ffffffffffffffffffffffffffffffffffffffff16815260200190815260200160002060009054906101000a900460ff161515145b611685576040517f08c379a000000000000000000000000000000000000000000000000000000000815260040161167c90612cd9565b60405180910390fd5b61168f83836121d2565b905092915050565b600360009054906101000a900473ffffffffffffffffffffffffffffffffffffffff1681565b60011515600f60009054906101000a900460ff16151514611713576040517f08c379a000000000000000000000000000000000000000000000000000000000815260040161170a9061326b565b60405180910390fd5b600c54600d546117239190612a06565b421015611765576040517f08c379a000000000000000000000000000000000000000000000000000000000815260040161175c906132d7565b60405180910390fd5b60165460048190555060006016819055506000600f60006101000a81548160ff02191690831515021790555060005b60138054905081101561184457600060126000601384815481106117bb576117ba612bf0565b5b9060005260206000200160009054906101000a900473ffffffffffffffffffffffffffffffffffffffff1673ffffffffffffffffffffffffffffffffffffffff1673ffffffffffffffffffffffffffffffffffffffff16815260200190815260200160002060006101000a81548160ff0219169083151502179055508080600101915050611794565b5060136000611853919061239c565b7f81eb7415440ff8e6c8e92606fd3b0e5e6a5c99ea90cdb63b41aec54e897312b3600e546040516118849190612525565b60405180910390a1565b6000600260008473ffffffffffffffffffffffffffffffffffffffff1673ffffffffffffffffffffffffffffffffffffffff16815260200190815260200160002060008373ffffffffffffffffffffffffffffffffffffffff1673ffffffffffffffffffffffffffffffffffffffff16815260200190815260200160002054905092915050565b60001515601060003373ffffffffffffffffffffffffffffffffffffffff1673ffffffffffffffffffffffffffffffffffffffff16815260200190815260200160002060009054906101000a900460ff1615151480156119c5575060001515601260003373ffffffffffffffffffffffffffffffffffffffff1673ffffffffffffffffffffffffffffffffffffffff16815260200190815260200160002060009054906101000a900460ff161515145b611a04576040517f08c379a00000000000000000000000000000000000000000000000000000000081526004016119fb90613369565b60405180910390fd5b80600160003373ffffffffffffffffffffffffffffffffffffffff1673ffffffffffffffffffffffffffffffffffffffff168152602001908152602001600020541015611a86576040517f08c379a0000000000000000000000000000000000000000000000000000000008152600401611a7d906133d5565b60405180910390fd5b600060045411611acb576040517f08c379a0000000000000000000000000000000000000000000000000000000008152600401611ac290613441565b60405180910390fd5b6000606460045483611add9190612932565b611ae791906131ba565b905060006064600560009054906101000a900460ff1660ff1683611b0b9190612932565b611b1591906131ba565b905060008183611b2591906131eb565b90508160076000828254611b399190612a06565b92505081905550611b4a3385611fa0565b3373ffffffffffffffffffffffffffffffffffffffff166108fc829081150290604051600060405180830381858888f19350505050158015611b90573d6000803e3d6000fd5b5050505050565b600360009054906101000a900473ffffffffffffffffffffffffffffffffffffffff1673ffffffffffffffffffffffffffffffffffffffff163373ffffffffffffffffffffffffffffffffffffffff1614611c27576040517f08c379a0000000000000000000000000000000000000000000000000000000008152600401611c1e90612a86565b60405180910390fd5b60648160ff16108015611c3d575060008160ff16115b611c7c576040517f08c379a0000000000000000000000000000000000000000000000000000000008152600401611c73906134d3565b60405180910390fd5b80600560006101000a81548160ff021916908360ff16021790555050565b600081600160008673ffffffffffffffffffffffffffffffffffffffff1673ffffffffffffffffffffffffffffffffffffffff168152602001908152602001600020541015611d1e576040517f08c379a0000000000000000000000000000000000000000000000000000000008152600401611d159061353f565b60405180910390fd5b81600260008673ffffffffffffffffffffffffffffffffffffffff1673ffffffffffffffffffffffffffffffffffffffff16815260200190815260200160002060003373ffffffffffffffffffffffffffffffffffffffff1673ffffffffffffffffffffffffffffffffffffffff168152602001908152602001600020541015611ddd576040517f08c379a0000000000000000000000000000000000000000000000000000000008152600401611dd4906135ab565b60405180910390fd5b81600160008673ffffffffffffffffffffffffffffffffffffffff1673ffffffffffffffffffffffffffffffffffffffff1681526020019081526020016000206000828254611e2c91906131eb565b9250508190555081600160008573ffffffffffffffffffffffffffffffffffffffff1673ffffffffffffffffffffffffffffffffffffffff1681526020019081526020016000206000828254611e829190612a06565b9250508190555081600260008673ffffffffffffffffffffffffffffffffffffffff1673ffffffffffffffffffffffffffffffffffffffff16815260200190815260200160002060003373ffffffffffffffffffffffffffffffffffffffff1673ffffffffffffffffffffffffffffffffffffffff1681526020019081526020016000206000828254611f1591906131eb565b925050819055508273ffffffffffffffffffffffffffffffffffffffff168473ffffffffffffffffffffffffffffffffffffffff167fddf252ad1be2c89b69c2b068fc378daa952ba7f163c4a11628f55a4df523b3ef84604051611f799190612525565b60405180910390a3600190509392505050565b600080611f97612371565b90508091505090565b80600160008473ffffffffffffffffffffffffffffffffffffffff1673ffffffffffffffffffffffffffffffffffffffff168152602001908152602001600020541015612022576040517f08c379a000000000000000000000000000000000000000000000000000000000815260040161201990613617565b60405180910390fd5b80600160008473ffffffffffffffffffffffffffffffffffffffff1673ffffffffffffffffffffffffffffffffffffffff168152602001908152602001600020600082825461207191906131eb565b925050819055508060008082825461208991906131eb565b92505081905550600073ffffffffffffffffffffffffffffffffffffffff168273ffffffffffffffffffffffffffffffffffffffff167fddf252ad1be2c89b69c2b068fc378daa952ba7f163c4a11628f55a4df523b3ef836040516120ee9190612525565b60405180910390a35050565b8060008082825461210b9190612a06565b9250508190555080600160008473ffffffffffffffffffffffffffffffffffffffff1673ffffffffffffffffffffffffffffffffffffffff16815260200190815260200160002060008282546121619190612a06565b925050819055508173ffffffffffffffffffffffffffffffffffffffff16600073ffffffffffffffffffffffffffffffffffffffff167fddf252ad1be2c89b69c2b068fc378daa952ba7f163c4a11628f55a4df523b3ef836040516121c69190612525565b60405180910390a35050565b600081600160003373ffffffffffffffffffffffffffffffffffffffff1673ffffffffffffffffffffffffffffffffffffffff168152602001908152602001600020541015612256576040517f08c379a000000000000000000000000000000000000000000000000000000000815260040161224d90613683565b60405180910390fd5b81600160003373ffffffffffffffffffffffffffffffffffffffff1673ffffffffffffffffffffffffffffffffffffffff16815260200190815260200160002060008282546122a591906131eb565b9250508190555081600160008573ffffffffffffffffffffffffffffffffffffffff1673ffffffffffffffffffffffffffffffffffffffff16815260200190815260200160002060008282546122fb9190612a06565b925050819055508273ffffffffffffffffffffffffffffffffffffffff163373ffffffffffffffffffffffffffffffffffffffff167fddf252ad1be2c89b69c2b068fc378daa952ba7f163c4a11628f55a4df523b3ef8460405161235f9190612525565b60405180910390a36001905092915050565b60007ff0c57e16840df040f15088dc2f81fe391c3923bec73e23a9662efc9c229c6a0060001b905090565b50805460008255906000526020600020908101906123ba91906123bd565b50565b5b808211156123d65760008160009055506001016123be565b5090565b600080fd5b6000819050919050565b6123f2816123df565b81146123fd57600080fd5b50565b60008135905061240f816123e9565b92915050565b60006020828403121561242b5761242a6123da565b5b600061243984828501612400565b91505092915050565b600073ffffffffffffffffffffffffffffffffffffffff82169050919050565b600061246d82612442565b9050919050565b61247d81612462565b811461248857600080fd5b50565b60008135905061249a81612474565b92915050565b600080604083850312156124b7576124b66123da565b5b60006124c58582860161248b565b92505060206124d685828601612400565b9150509250929050565b60008115159050919050565b6124f5816124e0565b82525050565b600060208201905061251060008301846124ec565b92915050565b61251f816123df565b82525050565b600060208201905061253a6000830184612516565b92915050565b600080600060608486031215612559576125586123da565b5b60006125678682870161248b565b93505060206125788682870161248b565b925050604061258986828701612400565b9150509250925092565b61259c816124e0565b81146125a757600080fd5b50565b6000813590506125b981612593565b92915050565b6000602082840312156125d5576125d46123da565b5b60006125e3848285016125aa565b91505092915050565b600060208284031215612602576126016123da565b5b60006126108482850161248b565b91505092915050565b600080600060608486031215612632576126316123da565b5b600061264086828701612400565b935050602061265186828701612400565b925050604061266286828701612400565b9150509250925092565b61267581612462565b82525050565b6000602082019050612690600083018461266c565b92915050565b600080604083850312156126ad576126ac6123da565b5b60006126bb8582860161248b565b92505060206126cc8582860161248b565b9150509250929050565b600060ff82169050919050565b6126ec816126d6565b81146126f757600080fd5b50565b600081359050612709816126e3565b92915050565b600060208284031215612725576127246123da565b5b6000612733848285016126fa565b91505092915050565b600082825260208201905092915050565b7f50726963652073686f756c64206265206d6f7265207468616e203020616e642060008201527f6e6f7420626520657175616c20746f207468652063757272656e74206f6e652e602082015250565b60006127a960408361273c565b91506127b48261274d565b604082019050919050565b600060208201905081810360008301526127d88161279c565b9050919050565b7f596f75206861766520616c726561647920766f74656420666f7220707269636560008201527f2e00000000000000000000000000000000000000000000000000000000000000602082015250565b600061283b60218361273c565b9150612846826127df565b604082019050919050565b6000602082019050818103600083015261286a8161282e565b9050919050565b7f546f74616c20737570706c79206973207a65726f2e204e6f20766f74696e672060008201527f616c6c6f7765642e000000000000000000000000000000000000000000000000602082015250565b60006128cd60288361273c565b91506128d882612871565b604082019050919050565b600060208201905081810360008301526128fc816128c0565b9050919050565b7f4e487b7100000000000000000000000000000000000000000000000000000000600052601160045260246000fd5b600061293d826123df565b9150612948836123df565b9250828202612956816123df565b9150828204841483151761296d5761296c612903565b5b5092915050565b7f596f752063616e6e6f7420766f746520666f7220746f6b656e2070726963652060008201527f617320796f7520646f6e74206861766520656e6f75676820746f6b656e732e00602082015250565b60006129d0603f8361273c565b91506129db82612974565b604082019050919050565b600060208201905081810360008301526129ff816129c3565b9050919050565b6000612a11826123df565b9150612a1c836123df565b9250828201905080821115612a3457612a33612903565b5b92915050565b7f46756e6374696f6e206973206f6e6c7920666f72206f776e65722e0000000000600082015250565b6000612a70601b8361273c565b9150612a7b82612a3a565b602082019050919050565b60006020820190508181036000830152612a9f81612a63565b9050919050565b7f5468657265607320616c726561647920612070656e64696e6720766f74696e6760008201527f20676f696e67206f6e2e00000000000000000000000000000000000000000000602082015250565b6000612b02602a8361273c565b9150612b0d82612aa6565b604082019050919050565b60006020820190508181036000830152612b3181612af5565b9050919050565b7f566f74696e672063616e6e6f742062652073746172746564206173207468657260008201527f65607320696e73756666696369656e7420766f74656420666f7220636f756e7460208201527f2e00000000000000000000000000000000000000000000000000000000000000604082015250565b6000612bba60418361273c565b9150612bc582612b38565b606082019050919050565b60006020820190508181036000830152612be981612bad565b9050919050565b7f4e487b7100000000000000000000000000000000000000000000000000000000600052603260045260246000fd5b6000612c2a826123df565b91507fffffffffffffffffffffffffffffffffffffffffffffffffffffffffffffffff8203612c5c57612c5b612903565b5b600182019050919050565b7f596f752063616e6e6f74207472616e7366657220617320796f7520706172746960008201527f63697061746520696e206120766f74696e672e00000000000000000000000000602082015250565b6000612cc360338361273c565b9150612cce82612c67565b604082019050919050565b60006020820190508181036000830152612cf281612cb6565b9050919050565b7f596f752063616e7420766f746520666f7220707269636520766f74696e67206160008201527f7320697420697320616c726561647920676f696e67206f6e2e00000000000000602082015250565b6000612d5560398361273c565b9150612d6082612cf9565b604082019050919050565b60006020820190508181036000830152612d8481612d48565b9050919050565b7f596f75206861766520616c726561647920766f74656420666f72206368616e6760008201527f652e000000000000000000000000000000000000000000000000000000000000602082015250565b6000612de760228361273c565b9150612df282612d8b565b604082019050919050565b60006020820190508181036000830152612e1681612dda565b9050919050565b7f596f752063616e6e6f7420766f746520666f72206368616e676520617320796f60008201527f7520646f6e74206861766520656e6f75676820746f6b656e732e000000000000602082015250565b6000612e79603a8361273c565b9150612e8482612e1d565b604082019050919050565b60006020820190508181036000830152612ea881612e6c565b9050919050565b6000819050919050565b600067ffffffffffffffff82169050919050565b6000819050919050565b6000612ef2612eed612ee884612eaf565b612ecd565b612eb9565b9050919050565b612f0281612ed7565b82525050565b6000602082019050612f1d6000830184612ef9565b92915050565b7f50726963652068617320616c7265616479206265656e207365742e0000000000600082015250565b6000612f59601b8361273c565b9150612f6482612f23565b602082019050919050565b60006020820190508181036000830152612f8881612f4c565b9050919050565b7f496e76616c696420707269636500000000000000000000000000000000000000600082015250565b6000612fc5600d8361273c565b9150612fd082612f8f565b602082019050919050565b60006020820190508181036000830152612ff481612fb8565b9050919050565b7f596f752063616e6e6f742062757920617320796f75207061727469636970617460008201527f6520696e206120766f74696e672e000000000000000000000000000000000000602082015250565b6000613057602e8361273c565b915061306282612ffb565b604082019050919050565b600060208201905081810360008301526130868161304a565b9050919050565b7f546f6b656e20707269636520686173206e6f74206265656e207365742079657460008201527f2e00000000000000000000000000000000000000000000000000000000000000602082015250565b60006130e960218361273c565b91506130f48261308d565b604082019050919050565b60006020820190508181036000830152613118816130dc565b9050919050565b7f53656e642065746820746f2062757920746f6b656e732e000000000000000000600082015250565b600061315560178361273c565b91506131608261311f565b602082019050919050565b6000602082019050818103600083015261318481613148565b9050919050565b7f4e487b7100000000000000000000000000000000000000000000000000000000600052601260045260246000fd5b60006131c5826123df565b91506131d0836123df565b9250826131e0576131df61318b565b5b828204905092915050565b60006131f6826123df565b9150613201836123df565b925082820390508181111561321957613218612903565b5b92915050565b7f566f74696e67206973206e6f74206163746976652e0000000000000000000000600082015250565b600061325560158361273c565b91506132608261321f565b602082019050919050565b6000602082019050818103600083015261328481613248565b9050919050565b7f566f74696e672074696d65206973206e6f74206f7665722e0000000000000000600082015250565b60006132c160188361273c565b91506132cc8261328b565b602082019050919050565b600060208201905081810360008301526132f0816132b4565b9050919050565b7f596f752063616e6e6f742073656c6c20617320796f752070617274696369706160008201527f746520696e206120766f74696e672e0000000000000000000000000000000000602082015250565b6000613353602f8361273c565b915061335e826132f7565b604082019050919050565b6000602082019050818103600083015261338281613346565b9050919050565b7f4e6f7420656e6f75676820746f6b656e73000000000000000000000000000000600082015250565b60006133bf60118361273c565b91506133ca82613389565b602082019050919050565b600060208201905081810360008301526133ee816133b2565b9050919050565b7f546f6b656e207072696365206e6f742073657400000000000000000000000000600082015250565b600061342b60138361273c565b9150613436826133f5565b602082019050919050565b6000602082019050818103600083015261345a8161341e565b9050919050565b7f4665652063616e6e6f74206265206c657373207468616e2031206f72206d6f7260008201527f65207468616e2039390000000000000000000000000000000000000000000000602082015250565b60006134bd60298361273c565b91506134c882613461565b604082019050919050565b600060208201905081810360008301526134ec816134b0565b9050919050565b7f496e73756666696369656e742062616c616e63652e0000000000000000000000600082015250565b600061352960158361273c565b9150613534826134f3565b602082019050919050565b600060208201905081810360008301526135588161351c565b9050919050565b7f4e6f7420616c6c6f77656420746f207370656e642074686973206d7563682e00600082015250565b6000613595601f8361273c565b91506135a08261355f565b602082019050919050565b600060208201905081810360008301526135c481613588565b9050919050565b7f4e6f7420656e6f75676820746f6b656e7320746f206275726e00000000000000600082015250565b600061360160198361273c565b915061360c826135cb565b602082019050919050565b60006020820190508181036000830152613630816135f4565b9050919050565b7f496e73756666696369656e742062616c616e6365000000000000000000000000600082015250565b600061366d60148361273c565b915061367882613637565b602082019050919050565b6000602082019050818103600083015261369c81613660565b905091905056fea26469706673582212200f09fa1782ed7dde6055a7ed2d8ad6a530b541dd94e6df741fb18d24c585a65764736f6c634300081c0033",
  "linkReferences": {},
  "deployedLinkReferences": {}
}